S01000004C616232417566332E7372656384
S11300000C9434000C943E000C943E000C943E007E
S11300100C943E000C943E000C943E000C943E0064
S11300200C943E000C943E000C943E000C943E0054
S11300300C943E000C943E000C943E000C943E0044
S11300400C943E000C943E000C943E000C943E0034
S11300500C943E000C943E000C943E000C943E0024
S11300600C943E000C943E0011241FBECFEFD8E048
S1130070DEBFCDBF0E9440000C9452000C940000DF
S11300808AB180648AB984B5836884BD85B581608A
S113009085BD87B587BD8FE99FE00197F1F700C063
S10B00A00000F7CFF894FFCF34
S9030000FC
