:100000000C9434000C943E000C943E000C943E0082
:100010000C943E000C943E000C943E000C943E0068
:100020000C943E000C943E000C943E000C943E0058
:100030000C943E000C943E000C943E000C943E0048
:100040000C943E000C943E000C943E000C943E0038
:100050000C943E000C943E000C943E000C943E0028
:100060000C943E000C943E0011241FBECFEFD8E04C
:10007000DEBFCDBF0E948A000C9484010C94000066
:10008000ECE7F0E09081907E8F71892B8083EAE726
:10009000F0E080818064808380917A0086FDFCCFCF
:1000A0008091780090917900089580E480937C009D
:1000B000EAE7F0E083E0808380818068808380814C
:1000C0008064808380917A0086FDFCCF80917800E7
:1000D000909179000895692F6695669570E0660F96
:1000E000771FCB01880F991F880F991F680F791F01
:1000F00080E090E00E94D1000E9437010E949B00A6
:100100006130710521F48BB184608BB908958BB196
:100110008BB908950E94550080E00E9440000E9423
:100120006B002FEF83ED90E3215080409040E1F78A
:1001300000C00000F1CF0E94A2006894B1110C949D
:10014000310108950E94160188F09F5798F0B92F49
:100150009927B751B0F0E1F0660F771F881F991FFC
:100160001AF0BA95C9F714C0B13091F00E9430016D
:10017000B1E008950C943001672F782F8827B85F7D
:1001800039F0B93FCCF3869577956795B395D9F754
:100190003EF490958095709561957F4F8F4F9F4F5E
:1001A0000895E89409C097FB3EF49095809570956A
:1001B00061957F4F8F4F9F4F9923A9F0F92F96E9B3
:1001C000BB279395F695879577956795B795F11128
:1001D000F8CFFAF4BB0F11F460FF1BC06F5F7F4FC5
:1001E0008F4F9F4F16C0882311F096E911C07723D7
:1001F00021F09EE8872F762F05C0662371F096E8E0
:10020000862F70E060E02AF09A95660F771F881FAE
:10021000DAF7880F9695879597F9089557FD9058C6
:10022000440F551F59F05F3F71F04795880F97FBBA
:10023000991F61F09F3F79F0879508951216130674
:100240001406551FF2CF4695F1DF08C016161706A3
:100250001806991FF1CF86957105610508940895D8
:10026000E894BB2766277727CB0197F908950E946A
:100270001601E8F09E37E8F09639B8F49E3848F455
:10028000672F782F8827985FF9CF869577956795A0
:1002900093959539D0F3B62FB1706B0F711D811DF9
:1002A00020F487957795679593950C945B010C9452
:1002B00076010C943101882371F4772321F0985052
:1002C000872B762F07C0662311F499270DC0905114
:1002D000862B70E060E02AF09A95660F771F881FE2
:1002E000DAF7880F9695879597F908959F3F31F033
:1002F000915020F4879577956795B795880F911D54
:0C0300009695879597F90895F894FFCF23
:00000001FF
