S01000004C616234417566312E7372656384
S11300000C9434000C9446000C9446000C94460066
S11300100C9446000C9446000C9446000C94460044
S11300200C9446000C9446000C9446000C94460034
S11300300C9446000C9446000C9446000C94460024
S11300400C9446000C9446000C9446000C94460014
S11300500C9446000C944E000C9446000C944600FC
S11300600C9446000C94460011241FBECFEFD8E038
S1130070DEBFCDBF21E0A0E0B1E001C01D92A03001
S1130080B207E1F70E9477000C9489000C940000F9
S1130090EAE7F0E080818064808308951F920F92E4
S11300A00FB60F9211242F933F934F935F936F9347
S11300B07F938F939F93AF93BF93EF93FF9315B861
S11300C01BB815B88FEF8BB90E944800FF91EF91D0
S11300D0BF91AF919F918F917F916F915F914F915C
S11300E03F912F910F900FBE0F901F9018958FEF97
S11300F08AB984B985B98BB985E480937C008FE88B
S113010080937A0080E280937E000E944800789475
S1090110FFCFF894FFCFBD
S9030000FC
