:100000000C9434000C9451000C9451000C94510049
:100010000C9451000C9451000C9451000C9451001C
:100020000C9451000C9451000C9451000C94590004
:100030000C9451000C9451000C9451000C945100FC
:100040000C9451000C9451000C9451000C945100EC
:100050000C9451000C94A6000C9451000C94510087
:100060000C9451000C94510011241FBECFEFD8E026
:10007000DEBFCDBF12E0A8E0B2E001C01D92AE30FD
:10008000B107E1F712E0A0E0B1E0E4E4F9E002C07A
:1000900005900D92A830B107D9F70E94D9000C94B1
:1000A000A0040C940000EAE7F0E080818064808383
:1000B00008951F920F920FB60F9211242F933F9322
:1000C0004F935F936F937F938F939F93AF93BF9360
:1000D000EF93FF93789460910802709109028091E8
:1000E0000A0290910B0220E030E040E85AE30E94BF
:1000F000140120E030E044E353E40E9414010E9424
:100100000E02AB0170930D0260930C0226E130E009
:10011000429FC001439F900D529F900D1124885122
:100120009C4F9093890080938800FF91EF91BF913D
:10013000AF919F918F917F916F915F914F913F917F
:100140002F910F900FBE0F901F9018951F920F9236
:100150000FB60F9211242F933F934F935F936F939A
:100160007F938F939F93AF93BF93EF93FF93789475
:10017000609178007091790080E090E00E946002C8
:10018000609308027093090280930A0290930B0215
:10019000FF91EF91BF91AF919F918F917F916F915F
:1001A0005F914F913F912F910F900FBE0F901F9035
:1001B000189562E064B981E085B980918000826A17
:1001C00080938000809181008A618093810080E427
:1001D0009CE9909387008093860084B18FEF84B967
:1001E00040910C0250910D022BE030E0429FC00183
:1001F000439F900D529F900D11248053984F9093E0
:1002000089008093880060936F0085E480937C0070
:100210008AE880937A0080E280937E00789418992F
:10022000FECF0E945300FBCFA0E2B0E0EAE1F1E094
:100230000C94690469837A838B839C832D833E832A
:100240004F835887CE010196BE01675F7F4F0E94A2
:100250000004CE010596BE016F5E7F4F0E94000430
:100260009985923078F089898230C0F0943019F401
:10027000823041F4CBC0843019F4923079F4C6C096
:10028000923051F481E02A859A89291709F480E097
:100290008A87CE010996BCC0823051F481E02A855C
:1002A0009A89291709F480E08A8BCE014196B0C063
:1002B0006D847E848F849888ED88FE880F89188DE0
:1002C000E0E2F0E080E090E0DC01AA24BB246501DC
:1002D00020E030E0A901B301617070706115710513
:1002E000D1F02E0D3F1D401F511F15012601280E74
:1002F000391E4A1E5B1E81E090E0A0E0B0E02E15A2
:100300003F054007510718F080E090E0DC01820DC6
:10031000931DA41DB51DAA0CBB1CCC1CDD1C17FF16
:1003200009C061E0262E312C412C512CA228B32883
:10033000C428D528319749F0EE0CFF1C001F111F6F
:100340009694879477946794C6CF6B897C89EB8564
:10035000FC856E0F7F1F6E5F7F4F7C8F6B8F61E020
:10036000EA857A89E71709F460E06A8F6B8D7C8DE6
:1003700010C0FC01E170F070309729F05695479558
:10038000379527955068B695A795979587956F5F90
:100390007F4FB7FDEECF0CC0880F991FAA1FBB1F60
:1003A00057FD8160220F331F441F551F615070405D
:1003B0008030E0E09E07E0E0AE07E0E4BE0760F3D7
:1003C0006B8F7C8F6FE7E62EF12C012D112DE8222B
:1003D000F9220A231B2360E4E616F1040105110546
:1003E00061F487FD0AC0211531054105510529F049
:1003F000805C9F4FAF4FBF4F80788D8F9E8FAF8FA8
:10040000B8A383E0898FCE01499602C080E091E0D5
:100410000E943203A096E2E10C948504ACE0B0E0C7
:10042000E4E1F2E00C94790469837A838B839C8302
:10043000CE010196BE016B5F7F4F0E9400048D814B
:10044000823081F1823070F1843021F48E818823F2
:1004500069F10AC02F81388537FD24C06E812F31A4
:1004600031053CF0662311F120E030E040E050E837
:1004700021C08EE190E0821B930B29853A854B8544
:100480005C8504C056954795379527958A95D2F790
:10049000662381F050954095309521953F4F4F4F01
:1004A0005F4F08C020E030E0A90104C02FEF3FEF0C
:1004B0004FEF5FE7B901CA012C96E2E00C94950476
:1004C000A8E0B0E0E6E6F2E00C9473047B018C0156
:1004D0001A82611571058105910519F482E08983FD
:1004E0005FC083E089838EE1C82ED12CDC82CB8271
:1004F000ED82FE820F831887C801B7010E94D802DF
:10050000FC013197F7FF3AC0AA27BB27AE1BBF0BF0
:1005100021E030E040E050E00A2E04C0220F331FFB
:10052000441F551F0A94D2F721503040404050409C
:100530002E213F214023512361E070E080E090E0D4
:10054000211531054105510519F460E070E0CB013A
:1005500004C016950795F794E794AA95D2F7E62A72
:10056000F72A082B192BED82FE820F8318878EE164
:1005700090E08E1B9F0B9C838B8312C0309781F081
:100580000E2E04C0EE0CFF1C001F111F0A94D2F7A0
:10059000ED82FE820F831887CE1ADF0ADC82CB82BF
:1005A000CE0101960E9432032896E8E00C948F0455
:1005B000AF92BF92CF92DF92EF92FF920F931F9371
:1005C0007B018C0180E0E81680E0F80681E00807F6
:1005D00080E0180758F4EFEFEE16F104010511055D
:1005E00009F090F480E090E0DC0117C0F0E0EF1635
:1005F000F0E0FF06F0E00F07F1E01F0750F480E1A4
:1006000090E0A0E0B0E009C088E090E0A0E0B0E0B9
:1006100004C088E190E0A0E0B0E020E230E040E0FB
:1006200050E0281B390B4A0B5B0B5701680104C0D3
:10063000D694C794B794A7948A95D2F7D601C501EA
:10064000885F9E4FFC018081281B310941095109B7
:10065000C9011F910F91FF90EF90DF90CF90BF9055
:10066000AF900895EF92FF920F931F93CF93DF9374
:10067000FC012481358146815781618180818230EE
:1006800020F44061EFEFF0E0A3C0843009F49BC098
:10069000823009F492C0211531054105510509F454
:1006A0008FC00280F381E02D8FEFE238F8070CF065
:1006B0005AC0C2E8DFEFCE1BDF0BCA31D1056CF5A3
:1006C00079018A010C2E04C016950795F794E794DA
:1006D0000A94D2F781E090E0A0E0B0E00C2E04C0D4
:1006E000880F991FAA1FBB1F0A94D2F70197A1096F
:1006F000B10982239323A423B52321E030E040E015
:1007000050E00097A105B10519F420E030E0A901FF
:100710002E293F29402B512B03C020E030E0A901B6
:10072000DA01C9018F779070A070B07080349105A4
:10073000A105B10539F427FF09C0205C3F4F4F4F99
:100740005F4F04C0215C3F4F4F4F5F4FE1E0F0E04F
:10075000203080E0380780E0480780E4580728F51B
:10076000E0E0F0E022C0E038F1056CF5E158FF4F21
:10077000DA01C9018F779070A070B0708034910554
:10078000A105B10539F427FF09C0205C3F4F4F4F49
:100790005F4F04C0215C3F4F4F4F5F4F57FF05C075
:1007A0005695479537952795319687E05695479505
:1007B000379527958A95D1F70BC0E0E0F0E005C0AA
:1007C000E0E0F0E005C0EFEFF0E020E030E0A9016C
:1007D0008E2F879588278795942F9F776795662713
:1007E0006795E695E22EA92FA82BFE2FF62B622FF8
:1007F000732F8A2F9F2FCDB7DEB7E6E00C949104BC
:10080000DC01FB012C9111963C91119712968C9171
:100810001297482F4F7750E0982F991F9927991FCB
:1008200013966C911397862F880F892B90E0661F83
:100830006627661F6183009739F52115310541054B
:10084000510511F482E029C082E89FEF93838283EF
:1008500067E0220F331F441F551F6A95D1F783E0CD
:10086000808309C0220F331F441F551F828193814B
:10087000019793838283203080E0380780E0480727
:1008800080E4580778F320C08F3F910579F4211553
:1008900031054105510519F484E08083089544FF32
:1008A00003C081E0808310C010820EC08F5790403B
:1008B0009383828383E0808387E0220F331F441F6A
:1008C000551F8A95D1F75064248335834683578317
:1008D00008952F923F924F925F926F927F928F92E4
:1008E0009F92AF92BF92CF92DF92EF92FF920F93BF
:1008F0001F93CF93DF93CDB7DEB7CA1BDB0B0FB6C9
:10090000F894DEBF0FBECDBF09942A883988488885
:100910005F846E847D848C849B84AA84B984C8841B
:10092000DF80EE80FD800C811B81AA81B981CE0F12
:10093000D11D0FB6F894DEBF0FBECDBFED010895F7
:04094000F894FFCF59
:100944000000000000000000000102020303030392
:10095400040404040404040405050505050505054B
:10096400050505050505050506060606060606062B
:100974000606060606060606060606060606060613
:1009840006060606060606060707070707070707FB
:1009940007070707070707070707070707070707E3
:1009A40007070707070707070707070707070707D3
:1009B40007070707070707070707070707070707C3
:1009C40007070707070707070808080808080808AB
:1009D4000808080808080808080808080808080893
:1009E4000808080808080808080808080808080883
:1009F4000808080808080808080808080808080873
:100A04000808080808080808080808080808080862
:100A14000808080808080808080808080808080852
:100A24000808080808080808080808080808080842
:100A34000808080808080808080808080808080832
:080A440008080808080808086A
:00000001FF
