:100000000C9434000C9446000C9446000C9446006A
:100010000C9446000C9446000C9446000C94460048
:100020000C9446000C9446000C9446000C94460038
:100030000C9446000C9446000C9446000C94460028
:100040000C9446000C9446000C9446000C94460018
:100050000C9446000C944E000C9446000C94460000
:100060000C9446000C94460011241FBECFEFD8E03C
:10007000DEBFCDBF11E0A0E0B1E001C01D92A23013
:10008000B107E1F70E9480000C9490000C940000EE
:10009000EAE7F0E080818064808308951F920F92E8
:1000A0000FB60F9211242F933F934F935F936F934B
:1000B0007F938F939F93AF93BF93EF93FF93809121
:1000C0007800909179009093010180930001880F4E
:1000D000991F880F991F95B98BB90E944800FF910D
:1000E000EF91BF91AF919F918F917F916F915F91B0
:1000F0004F913F912F910F900FBE0F901F90189529
:100100008FEF8AB984B985E480937C008AE8809374
:100110007A0080E280937E000E9448007894FFCFAE
:04012000F894FFCF81
:00000001FF
