:100000000C9434000C94E3020C9446000C944600CB
:100010000C9446000C9446000C9446000C94460048
:100020000C9446000C9446000C9446000C94460038
:100030000C9446000C9446000C9446000C94460028
:100040000C9446000C9446000C9446000C94460018
:100050000C9446000C9446000C9446000C94460008
:100060000C9446000C94460011241FBECFEFD8E03C
:10007000DEBFCDBF11E0A0E0B1E001C01D92A23013
:10008000B107E1F70E942B030C9460030C9400006D
:100090001092B90088E48093B80084E08093BC009B
:1000A000089584EA8093BC008091BC0087FFFCCF58
:1000B000089584E98093BC008091BC0084FDFCCF4E
:1000C00008958093BB0084E88093BC008091BC00BD
:1000D00087FFFCCF089584EC8093BC008091BC0026
:1000E00087FFFCCF8091BB00089584E88093BC001B
:1000F0008091BC0087FFFCCF8091BB000895809168
:10010000B900887F08950E9459000895982F92950C
:100110009F70990F292F220F220F290F8F70820FA6
:1001200008956AE00E9454038295807F890F0895A4
:100130000E9451008091B900887F883011F00E94A0
:10014000590080ED0E9461008091B900887F88315C
:1001500011F00E9459008EE00E9461008091B90068
:10016000887F883211F00E94590080E00E9461006F
:100170008091B900887F883211F00E9459000E9456
:1001800059000895BF92CF92DF92EF92FF920F93A2
:100190001F93DF93CF93CDB7DEB729970FB6F894AF
:1001A000DEBF0FBECDBF182F842F298768870E941E
:1001B0009100B82E6885862F0E949100D82E812F3D
:1001C0000E949100F82E802F0E949100082F8E2D02
:1001D0000E949100182F8C2D805D0E949100B982A1
:1001E000DA82FB8229852C830D831E838F830E94F4
:1001F00051008091B900887F883011F00E94590029
:1002000080ED0E9461008091B900887F883111F0F3
:100210000E94590080E00E9461008091B900887FAF
:10022000883211F00E9459008E010F5F1F4F89E044
:10023000E82EF12CEC0EFD1EF80181918F010E9439
:1002400061008091B900887F883211F00E945900C6
:100250000E151F0589F70E94590029960FB6F894CC
:10026000DEBF0FBECDBFCF91DF911F910F91FF90E9
:10027000EF90DF90CF90BF9008951F93DF93CF93BF
:100280000F92CDB7DEB7182F0E9451008091B900B0
:10029000887F883011F00E94590080ED0E94610033
:1002A0008091B900887F883111F00E945900812F18
:1002B0000E9461008091B900887F883211F00E940D
:1002C00059000E9451008091B900887F803111F05F
:1002D0000E94590081ED0E9461008091B900887FE1
:1002E000803411F00E9459000E9475009091B9006D
:1002F000987F983521F089830E94590089818983EC
:100300000E94590089810F90CF91DF911F9108952C
:100310000F931F93182F062F0E9451008091B90050
:10032000887F883011F00E94590080ED0E946100A2
:100330008091B900887F883111F00E945900812F87
:100340000E9461008091B900887F883211F00E947C
:100350005900802F0E9461008091B900887F883207
:1003600011F00E9459000E9459001F910F910895A9
:100370008EE00E943D01682F64608EE00E9488013B
:1003800008958EE00E943D01682F6B7F8EE00E94F1
:1003900088010895662311F481700895613031F465
:1003A00090E082709070959587950895623041F441
:1003B00090E08470907095958795959587950895B0
:1003C000633049F490E08870907023E095958795AC
:1003D0002A95E1F70895643021F4869586958695EF
:1003E00011C0653019F482958F700CC0663021F40D
:1003F00082958695877006C0673031F48295869520
:10040000869583708270089580E00895EF92FF9240
:100410000F931F93182F60E00E94CA01E82EE79403
:10042000EE24E794812F61E00E94CA01F82EF79430
:10043000FF24F794812F62E00E94CA01082F0795DC
:1004400000270795812F63E00E94CA01182F179596
:10045000112717950E9451008091B900887F88303C
:1004600011F00E94590080ED0E9461008091B90056
:10047000887F883111F00E94590087E00E94610056
:100480008091B900887F883211F00E9459008E2D2A
:100490000E9461008091B900887F883211F00E942B
:1004A00059008F2D0E9461008091B900887F8832A9
:1004B00011F00E945900802F0E9461008091B900C4
:1004C000887F883211F00E945900812F0E946100BC
:1004D0008091B900887F883211F00E9459000E94F3
:1004E00059001F910F91FF90EF9008958EE00E94A8
:1004F0003D01682F61608EE00E94880108958EE0C2
:100500000E943D01682F6E7F8EE00E948801089551
:100510008FE00E943D01682F6E7F8FE00E9488016E
:1005200008958EE00E943D01682F68608EE00E9471
:100530008801089580E00E943D018F70089581E058
:100540000E943D018F70089582E00E943D018F70EE
:10055000089583E00E943D01089584E00E943D01DA
:100560008F70089585E00E943D018F70089586E0A8
:100570000E943D018F70089580E00E943D018077C8
:1005800082958F70089581E00E943D0182958F7061
:10059000089582E00E943D01807382958F700895D6
:1005A00084E00E943D01807382958F70089585E0FC
:1005B0000E943D0182958F70089586E00E943D0162
:1005C00082958F7008951F920F920FB60F9211248B
:1005D0002F933F934F935F936F937F938F939F934B
:1005E000AF93BF93EF93FF9380910001909101012E
:1005F0008C33910529F4109201011092000105C07D
:1006000001969093010180930001409828B1809158
:100610000001909101018072907055E09595879549
:100620005A95E1F7282B28B9809100018F7185B97F
:100630000E948802FF91EF91BF91AF919F918F919E
:100640007F916F915F914F913F912F910F900FBECE
:100650000F901F901895CF92DF92EF920F931F93F8
:100660001AB88FEF84B911E017B90E9448000E94B0
:1006700098008CE06CE04CE027E001E0E6E0EE2E34
:1006800075E1C72ED12C0E94C2008FE00E940602A5
:100690000E9476020E94B80184E08BB982E08093C8
:1006A00069001DBB7894FFCF991B79E004C0991FA6
:1006B000961708F0961B881F7A95C9F780950895BC
:0406C000F894FFCFDC
:00000001FF
