:100000000C943A000C943F090C9457000C94570040
:100010000C9457000C9457000C9457000C94570004
:100020000C9457000C9457000C9457000C945700F4
:100030000C9457000C9457000C9457000C945700E4
:100040000C9457000C9457000C946B000C9499007E
:100050000C9457000C9457000C9457000C945700C4
:100060000C9457000C9457006364696E6F7073753D
:1000700078585B0011241FBECFEFD8E0DEBFCDBFA4
:1000800013E0A0E0B1E0E6E6F8E202C005900D92D0
:10009000A031B107D9F713E0A0E1B3E001C01D9290
:1000A000A839B107E1F70E9465090C9431140C944A
:1000B00000002D9A8AE68A95F1F700C02D980895E0
:1000C00095B1907F95B995B182958F70892B85B93F
:1000D0000E94590008951F920F920FB60F9211249B
:1000E0002F938F939F93EF93FF939091C0008091F4
:1000F000C600E0913A03EF5FEF7120913B03E217F6
:1001000041F09C71E0933A03F0E0E45CFC4F8083A3
:1001100001C092E080915C03892B80935C03FF9186
:10012000EF919F918F912F910F900FBE0F901F9085
:1001300018951F920F920FB60F9211248F939F93D1
:10014000EF93FF939091180380911903981769F02A
:10015000E0911903EF5FEF71E0931903F0E0E65EC1
:10016000FC4F80818093C60005C08091C1008F7DC7
:100170008093C100FF91EF919F918F910F900FBEDF
:100180000F901F9018951092180310921903109257
:100190003A0310923B0397FF03C022E02093C00074
:1001A000292F20782093C5008093C40088E980938C
:1001B000C10086E08093C200089590913A03809137
:1001C0003B039817A1F080913B038F5F8F71E82F5D
:1001D000F0E0E45CFC4F908140915C0380933B0332
:1001E00010925C03342F20E0290F311D02C020E063
:1001F00031E0C9010895909118039F5F9F7120918C
:1002000019039217E1F3E92FF0E0E65EFC4F8083DB
:10021000909318038091C10080628093C10008957B
:10022000EF92FF92CF93DF93E82EE7017E01F92E44
:10023000E70102C00E94FB0089918823D9F7DF9172
:10024000CF91FF90EF900895CF93DF93EC0102C020
:100250000E94FB00FE01219684918823C9F7DF915B
:10026000CF9108958FEF97EAA1E681509040A0408A
:10027000E1F700C0000010928D0310928C030895E6
:1002800080918C0390918D030895BF92CF92DF925D
:10029000EF92FF920F931F93DF93CF9300D000D084
:1002A0000F92CDB7DEB7F82EE92EFE01319685E02C
:1002B000DF011D928A95E9F710928D0310928C034D
:1002C0005D98559A8FEF99EFA0E081509040A04043
:1002D000E1F700C000005D9A559880E00EC09AE0FA
:1002E0009A95F1F700C08E5F8E3339F484E090E088
:1002F00090938D0380938C0303C099B195FDEFCF4C
:1003000080918C0390918D03009779F025C0AAE02D
:10031000AA95F1F700C08E5F863641F424E030E004
:1003200030938D0320938C0313C080E099B195FF27
:10033000EECF0EC0BAE0BA95F1F700C08E5F8636F8
:1003400041F424E030E030938D0320938C0304C00B
:1003500080E099B195FDEECF20918C0330918D0313
:100360002115310509F44BC057C09AE09A95F1F771
:1003700000C08E5F883451F4F0938D03E0938C03BA
:10038000CC24CA9495E0D92E04C080E099B195FFA1
:10039000ECCF80918C0390918D03009741F5AAEBEF
:1003A000AA95F1F700C089B185FF1DC0D801AD0D38
:1003B000B11DCA01B9010C2C04C0660F771F881F3C
:1003C000991F0A94D2F7BC90B62ABC920CC0BAE02E
:1003D000BA95F1F700C08E5F863631F4F0938D0345
:1003E000E0938C0304C080E099B195FDF0CFCA94EE
:1003F000C7FECBCFD3948D2D853058F00DC0DD24B2
:100400008E010F5F1F4F21E030E040E050E0E4E05C
:10041000F0E087E0C82EB9CF20918C0330918D0396
:1004200021153105F1F48A819981890F9B81890F0A
:100430009C81890F9D81891739F083E090E090932A
:100440008D0380938C030DC0FE0131969701832F9D
:100450009E2DDC01CE01059621912D93E817F90719
:10046000D9F780918C0390918D030F900F900F908E
:100470000F900F90CF91DF911F910F91FF90EF9010
:10048000DF90CF90BF900895AF92BF92CF92DF924E
:10049000EF92FF920F931F93DF93CF9300D000D082
:1004A000CDB7DEB78C017B0119821A821B821C82B8
:1004B000CE0101960E944501009709F08BC00115FD
:1004C0001105A1F12B816C8170E027FF13C030E092
:1004D0002F773070322F2227262B372BB901882710
:1004E00077FD8095982F0E94C40D20E030E040E217
:1004F00051EC0EC0922F80E0682B792B882777FD76
:100500008095982F0E94C40D20E030E040E251E435
:100510000E94860C472F382F292F862F942FA32F28
:10052000B22FF80180839183A283B383E114F10495
:10053000B9F0998180E06A8170E0682B792B882777
:1005400077FD8095982F0E94C40D20E030E040E2B6
:1005500051E40E94860CF701608371838283938348
:10056000F801A080B180C280D380C601B50120E02F
:1005700030E040E252EC0E94940D87FD0AC0C601B3
:10058000B50120E030E040EA52E40E94640D181604
:100590001CF482E090E01AC0F701E080F180028153
:1005A0001381C801B70120E030E0A9010E94940D39
:1005B00087FD0AC0C801B70120E030E048EC52E4F2
:1005C0000E94640D181634F481E090E090938D033E
:1005D00080938C0380918C0390918D030F900F90EA
:1005E0000F900F90CF91DF911F910F91FF90EF909F
:1005F000DF90CF90BF90AF900895BC0180E090E075
:100600000E944402089560E070E00E944402089550
:1006100026E636E646EE5FE30E948C0B20E030E0F3
:1006200040E052E40E942E0B089523E333E948E8AA
:1006300053E40E942E0B08951F93182F2C9A0E94AA
:100640006000812F8295807F0E94600085EF8A95EF
:10065000F1F700001F9108951F93182F2C980E9406
:100660006000812F8295807F0E94600080EE8A95D5
:10067000F1F71F91089581E00E942C038FE39FE121
:100680000197F1F700C00000089584B18F6384B929
:1006900085B1807C85B98FE59AEE0197F1F700C0AE
:1006A000000080E30E9460008FE19EE40197F1F773
:1006B00000C000000E9459008FE99FE00197F1F708
:1006C00000C000000E9459008FE99FE00197F1F7F8
:1006D00000C0000080E20E9460008FE19EE401976C
:1006E000F1F700C0000088E20E942C038CE00E9419
:1006F0002C0386E00E942C030E943B03089582E0B5
:100700000E942C038FE39FE10197F1F700C00000E6
:100710000895623061F0633018F4613079F405C0F7
:10072000633039F0643051F406C0805805C08054FD
:1007300003C0805701C080530E942C030895EF929C
:10074000FF92CF93DF93E82EE7017E01F92EE701B8
:1007500002C00E941C0389918823D9F7DF91CF91B1
:10076000FF90EF900895EF92FF921F93DF93CF9346
:1007700000D0CDB7DEB7880F880F880F80646983FB
:100780007A830E942C0369817A81462F572F7A0140
:1007900018E0F70181917F010E941C031150C9F7F5
:1007A00080E80E942C030F900F90CF91DF911F9152
:1007B000FF90EF9008951092B90088E48093B800FC
:1007C00084E08093BC00089584EA8093BC0080910B
:1007D000BC0087FFFCCF089584E98093BC00809122
:1007E000BC0084FDFCCF08958093BB0084E8809317
:1007F000BC008091BC0087FFFCCF089584EC8093FF
:10080000BC008091BC0087FFFCCF8091BB000895A5
:1008100084E88093BC008091BC0087FFFCCF80916E
:10082000BB0008958091B900887F08950E94EC0371
:100830000895982F92959F70990F292F220F220FBC
:10084000290F8F70820F08956AE00E9460108295D0
:10085000807F890F08950E94E4038091B900887F0A
:10086000883011F00E94EC0380ED0E94F403809127
:10087000B900887F883111F00E94EC038EE00E945D
:10088000F4038091B900887F883211F00E94EC0354
:1008900080E00E94F4038091B900887F883211F0D3
:1008A0000E94EC030E94EC030895BF92CF92DF9266
:1008B000EF92FF920F931F93DF93CF93CDB7DEB7E5
:1008C00029970FB6F894DEBF0FBECDBF182F842F27
:1008D000298768870E942404B82E6885862F0E9485
:1008E0002404D82E812F0E942404F82E802F0E94E9
:1008F0002404082F8E2D0E942404182F8C2D805D37
:100900000E942404B982DA82FB8229852C830D831C
:100910001E838F830E94E4038091B900887F883012
:1009200011F00E94EC0380ED0E94F4038091B90065
:10093000887F883111F00E94EC0380E00E94F4036C
:100940008091B900887F883211F00E94EC038E01FB
:100950000F5F1F4F59E0E52EF12CEC0EFD1EF80144
:1009600081918F010E94F4038091B900887F8832C1
:1009700011F00E94EC030E151F0589F70E94EC038D
:1009800029960FB6F894DEBF0FBECDBFCF91DF9191
:100990001F910F91FF90EF90DF90CF90BF9008953F
:1009A0001F93DF93CF930F92CDB7DEB7182F0E941E
:1009B000E4038091B900887F883011F00E94EC0335
:1009C00080ED0E94F4038091B900887F883111F096
:1009D0000E94EC03812F0E94F4038091B900887F6C
:1009E000883211F00E94EC030E94E4038091B90068
:1009F000887F803111F00E94EC0381ED0E94F403A6
:100A00008091B900887F803411F00E94EC030E942D
:100A100008049091B900987F983521F089830E944D
:100A2000EC03898189830E94EC0389810F90CF9127
:100A3000DF911F9108950F931F93182F062F0E9487
:100A4000E4038091B900887F883011F00E94EC03A4
:100A500080ED0E94F4038091B900887F883111F005
:100A60000E94EC03812F0E94F4038091B900887FDB
:100A7000883211F00E94EC03802F0E94F4038091D1
:100A8000B900887F883211F00E94EC030E94EC03C9
:100A90001F910F9108958EE00E94D004682F64602A
:100AA0008EE00E941B0508958EE00E94D004682FFE
:100AB0006B7F8EE00E941B050895662311F4817000
:100AC0000895613031F490E082709070959587952B
:100AD0000895623041F490E0847090709595879508
:100AE000959587950895633049F490E088709070EB
:100AF00063E0959587956A95E1F70895643021F450
:100B000086958695869511C0653019F482958F700B
:100B10000CC0663021F482958695877006C06730D8
:100B200031F482958695869583708270089580E071
:100B30000895EF92FF920F931F93182F60E00E9489
:100B40005D05E82EE794EE24E794812F61E00E9492
:100B50005D05F82EF794FF24F794812F62E00E9440
:100B60005D05082F079500270795812F63E00E94F8
:100B70005D05182F1795112717950E94E4038091A2
:100B8000B900887F883011F00E94EC0380ED0E944C
:100B9000F4038091B900887F883111F00E94EC0342
:100BA00087E00E94F4038091B900887F883211F0B9
:100BB0000E94EC038E2D0E94F4038091B900887F7F
:100BC000883211F00E94EC038F2D0E94F403809173
:100BD000B900887F883211F00E94EC03802F0E94B8
:100BE000F4038091B900887F883211F00E94EC03F1
:100BF000812F0E94F4038091B900887F883211F020
:100C00000E94EC030E94EC031F910F91FF90EF9064
:100C10000895FF920F931F93182F60E00E945D05C7
:100C2000F82EF794FF24F794812F61E00E945D0570
:100C3000082F079500270795812F62E00E945D0528
:100C4000182F1795112717950E94E4038091B9007A
:100C5000887F883011F00E94EC0380ED0E94F4033D
:100C60008091B900887F883111F00E94EC038BE0FD
:100C70000E94F4038091B900887F883211F00E94AD
:100C8000EC038F2D0E94F4038091B900887F883295
:100C900011F00E94EC03802F0E94F4038091B900B0
:100CA000887F883211F00E94EC03812F0E94F403A8
:100CB0008091B900887F883211F00E94EC030E9475
:100CC000EC031F910F91FF9008958EE00E94D004D5
:100CD000682F61608EE00E941B0508958EE00E94DF
:100CE000D004682F62608EE00E941B0508958EE09C
:100CF0000E94D004682F6E7F8EE00E941B0508952D
:100D00008EE00E94D004682F6D7F8EE00E941B054C
:100D100008958FE00E94D004682F6E7F8FE00E94BC
:100D20001B0508958FE00E94D004682F6D7F8FE02F
:100D30000E941B0508958EE00E94D004682F686011
:100D40008EE00E941B05089580E00E94D0048F7001
:100D5000089581E00E94D0048F70089582E00E947F
:100D6000D0048F70089583E00E94D004089584E039
:100D70000E94D0048F70089585E00E94D0048F7087
:100D8000089586E00E94D0048F70089580E00E944C
:100D9000D004807782958F70089581E00E94D004FE
:100DA00082958F70089582E00E94D00480738295AE
:100DB0008F70089584E00E94D004807382958F70B4
:100DC000089585E00E94D00482958F70089586E092
:100DD0000E94D00482958F7008958EE00E94D00406
:100DE00021E030E081FD02C020E030E0C90108953B
:100DF000CF93DF9380E061E00E9489030E94DA06CE
:100E00000E94190490E069E773E04AE050E00E9414
:100E1000A31089E793E00E949F030E94B7060E94F7
:100E2000190490E069E773E04AE050E00E94A310E3
:100E300089E793E00E949F0380E091E00E949F0376
:100E40000E94BC060E941904C82FD0E00E94E1064F
:100E50000E94190490E00097B1F5C130D10519F452
:100E600082E091E043C0C230D10519F486E091E000
:100E70003DC0C330D10519F48AE091E037C0C430D9
:100E8000D10519F48EE091E031C0C530D10519F4D7
:100E900082E191E02BC0C630D10519F486E191E0E2
:100EA00025C0C730D10519F48AE191E01FC0C830D0
:100EB000D10519F48EE191E019C0C930D105C1F412
:100EC00082E291E013C08130910591F4209719F4EA
:100ED00086E291E00BC0C130D10519F48AE291E0BD
:100EE00005C0C230D10521F48EE291E00E949F033B
:100EF00082E391E00E949F030E94D3060E9419049E
:100F000090E069E773E04AE050E00E94A31089E7AF
:100F100093E00E949F030E94AE060E94190490E095
:100F200069E773E04AE050E00E94A31089E793E08C
:100F30000E949F0385E391E00E949F030E94CD06DB
:100F40000E94190490E069E773E04AE050E00E94D3
:100F5000A31089E793E00E949F030E94A9060E94C4
:100F6000190490E069E773E04AE050E00E94A310A2
:100F700089E793E00E949F0385E391E00E949F032D
:100F80000E94C6060E94190490E069E773E04AE0F7
:100F900050E00E94A31089E793E00E949F030E9403
:100FA000A4060E941904C82FD0E0CE0169E773E0BF
:100FB0004AE050E00E94A31089E793E00E949F035B
:100FC00080911003909111031816190684F4209152
:100FD0001203309113032C173D0749F001979093AA
:100FE000110380931003D0931303C0931203DF9176
:100FF000CF910895CF92DF92EF92FF920F931F93BC
:10100000DF93CF93CDB7DEB728970FB6F894DEBF46
:101010000FBECDBF80E062E00E94890380E090E0D7
:10102000DC0189839A83AB83BC836E010894C11C65
:10103000D11C0CC0C6010E9403038FEF91EEA4E007
:1010400081509040A040E1F700C00000E980FA80A4
:101050000B811C81C801B70120E030E0A9010E948A
:10106000340D882339F3C801B7010E94240EDC0136
:10107000CB016EE873E04AE050E00E94A31087E3E2
:1010800091E00E949F0380918E030E941C03809137
:101090008F030E941C038FED0E941C038CE391E0E0
:1010A0000E949F0380E090E0DC018D839E83AF83EC
:1010B000B887F5E0CF2ED12CCC0EDD1E0CC0C601BA
:1010C0000E94FD028FEF91EEA4E081509040A0407D
:1010D000E1F700C00000ED80FE800F811885C80197
:1010E000B70120E030E0A9010E94340D882339F3D4
:1010F000C801B7010E94240EDC01CB0162E873E055
:101100004AE050E00E94A310809182030E941C03D9
:10111000809183030E941C0383E491E00E949F035B
:1011200028960FB6F894DEBF0FBECDBFCF91DF91EA
:101130001F910F91FF90EF90DF90CF900895CF9285
:10114000DF92EF920F931F93DF93CF93CDB7DEB76C
:1011500060970FB6F894DEBF0FBECDBF85E491E077
:101160000E9410010DE513E0C8010E9410018DB727
:101170009EB744970FB6F8949EBF0FBE8DBFEDB7D4
:10118000FEB73196ADB7BEB712961C930E9311976A
:1011900089E591E093838283CE010B9695838483C6
:1011A000CE01099697838683CE0107969187808723
:1011B000CE01019693878287CE0103969587848717
:1011C000CE01059697878687CE010D96918B808BF1
:1011D000CE010F96938B828B0E94C4108CE1F80194
:1011E00011928A95E9F710921503109214038DB7A6
:1011F0009EB744960FB6F8949EBF0FBE8DBFCB84AA
:10120000DC8489816B814D8127E00F81E9840E9414
:10121000550484E062E00E9489038D859E856EE816
:1012200073E04AE050E00E94A31080918E030E9478
:101230001C0380918F030E941C038DE062E00E94DA
:1012400089038F85988962E873E04AE050E00E9444
:10125000A310809182030E941C03809183030E944B
:101260001C0360960FB6F894DEBF0FBECDBFCF91C2
:10127000DF911F910F91EF90DF90CF9008951F9213
:101280000F920FB60F9211242F933F934F935F93BA
:101290006F937F938F939F93AF93BF93EF93FF933E
:1012A0000E94FA070E949206FF91EF91BF91AF91C1
:1012B0009F918F917F916F915F914F913F912F916E
:1012C0000F900FBE0F901F901895CF92DF92EF9264
:1012D0000F931F93CF93DF930E94450387E690E01F
:1012E0000E94C3000E942B0487E16BE342E327E0E6
:1012F0000FE1BCE0EB2EA5EECA2EA7E0DA2E0E948D
:1013000055048FE00E9409060E946E060E944B055C
:101310001AB88CE08BB982E08093690081E08DBBC4
:10132000789483E791E00E9410018BE991E00E949C
:10133000100181ED91E00E9410018DE00E94FB0000
:101340000E94F8060E94FA0702E010E0CDE5D3E023
:101350000E94DD00909381038093800390FF1AC068
:101360000E94F8064B990CC08091100390911103D4
:10137000009731F40E94FA071093110300931003B1
:101380008FEF91EEA4E081509040A040E1F700C0C3
:101390000000DECFFE0101900020E9F7A3E0E9376D
:1013A000FA0719F40E949F08D3CF209114033091BB
:1013B0001503F901E35AFC4F80832F5F3F4F3093B1
:1013C000150320931403C4CFA0E0B0E0EAEEF9E0E7
:1013D0000C947010FC01EA018081823008F438C15D
:1013E000DB019C91923008F430C1843059F4943080
:1013F00009F02EC1918111968C911197981709F0DF
:1014000021C126C1943009F420C19230B1F4823058
:1014100009F01EC1CA01AF0128E0DA010D90AD014B
:10142000DC010D92CD012150C1F7DB0111968C91A9
:1014300011979181892389830AC1823009F405C1FA
:10144000C280D380DB0112966D907C90139724812B
:101450003581468157811496ED90FD900D911C9138
:101460001797C601861997095C0197FF04C0AA2443
:10147000BB24A81AB90AB0E2AB16B1040CF061C0E3
:10148000181619066CF5370148010A2C04C0969409
:101490008794779467940A94D2F781E090E0A0E073
:1014A000B0E00A2C04C0880F991FAA1FBB1F0A9422
:1014B000D2F70197A109B1098E219F21A023B12361
:1014C000EE24FF248701E3940097A105B10519F4E8
:1014D000EE24FF248701E628F728082919293CC0B3
:1014E0000097D1F1CA0CDB1C39014A010A2C04C057
:1014F00096948794779467940A94D2F781E090E069
:10150000A0E0B0E00A2C04C0880F991FAA1FBB1FDF
:101510000A94D2F70197A109B10982239323A42346
:10152000B52321E030E040E050E00097A105B1058F
:1015300019F420E030E0A901262937294829592942
:101540000BC06C147D0424F4EE24FF24870104C036
:10155000630120E030E0A9018181FB0191818917BD
:1015600009F445C0882349F0D801C701821B930BB9
:10157000A40BB50B9C01AD0104C02E193F09400B13
:10158000510B57FD04C01982DB82CA820BC081E077
:101590008983DB82CA8250954095309521953F4FD3
:1015A0004F4F5F4F2C833D834E835F830DC0880F69
:1015B000991FAA1FBB1F8C839D83AE83BF838A8123
:1015C0009B8101979B838A838C819D81AE81BF81A2
:1015D0009C01AD0121503040404050402F3FEFEF83
:1015E0003E07EFEF4E07EFE35E0708F30BC089837A
:1015F000DB82CA822E0D3F1D401F511F2C833D836D
:101600004E835F8383E088832C813D814E815F819F
:1016100057FF1DC0DA01C90181709070A070B070D1
:101620005695479537952795822B932BA42BB52B51
:101630008C839D83AE83BF838A819B8101969B832C
:101640008A8305C0E7E0F2E003C0FB0101C0FE01B0
:10165000CF01CDB7DEB7EEE00C948C10A0E2B0E085
:10166000E4E3FBE00C94781069837A838B839C839A
:101670002D833E834F83588789E0E82EF12CEC0EB2
:10168000FD1ECE010196B7010E949E0F8E010F5ED6
:101690001F4FCE010596B8010E949E0FC701B801E9
:1016A000AE01475E5F4F0E94E4090E94D00EA096F3
:1016B000E6E00C949410A0E2B0E0E1E6FBE00C94CC
:1016C000781069837A838B839C832D833E834F8339
:1016D00058878E01075F1F4FCE010196B8010E9407
:1016E0009E0F91E1E92EF12CEC0EFD1ECE01059628
:1016F000B7010E949E0F8A8991E089278A8BC801D1
:10170000B701AE01475E5F4F0E94E4090E94D00E10
:10171000A096E6E00C949410A0E2B0E0E2E9FBE0D1
:101720000C946C1069837A838B839C832D833E8316
:101730004F835887CE010196BE01675F7F4F0E949D
:101740009E0FCE010596BE016F5E7F4F0E949E0FD9
:101750009985923078F089898230C0F0943019F4FC
:10176000823041F4CBC0843019F4923079F4C6C091
:10177000923051F481E02A859A89291709F480E092
:101780008A87CE010996BCC0823051F481E02A8557
:101790009A89291709F480E08A8BCE014196B0C05E
:1017A0006D847E848F849888ED88FE880F89188DDB
:1017B000E0E2F0E080E090E0DC01AA24BB246501D7
:1017C00020E030E0A901B30161707070611571050E
:1017D000D1F02E0D3F1D401F511F15012601280E6F
:1017E000391E4A1E5B1E81E090E0A0E0B0E02E159D
:1017F0003F054007510718F080E090E0DC01820DC2
:10180000931DA41DB51DAA0CBB1CCC1CDD1C17FF11
:1018100009C061E0262E312C412C512CA228B3287E
:10182000C428D528319749F0EE0CFF1C001F111F6A
:101830009694879477946794C6CF6B897C89EB855F
:10184000FC856E0F7F1F6E5F7F4F7C8F6B8F61E01B
:10185000EA857A89E71709F460E06A8F6B8D7C8DE1
:1018600010C0FC01E170F070309729F05695479553
:10187000379527955068B695A795979587956F5F8B
:101880007F4FB7FDEECF0CC0880F991FAA1FBB1F5B
:1018900057FD8160220F331F441F551F6150704058
:1018A0008030E0E09E07E0E0AE07E0E4BE0760F3D2
:1018B0006B8F7C8F6FE7E62EF12C012D112DE82226
:1018C000F9220A231B2360E4E616F1040105110541
:1018D00061F487FD0AC0211531054105510529F044
:1018E000805C9F4FAF4FBF4F80788D8F9E8FAF8FA3
:1018F000B8A383E0898FCE01499602C087E092E0C9
:101900000E94D00EA096E2E10C948810A8E1B0E00D
:10191000ECE8FCE00C94741069837A838B839C83DD
:101920002D833E834F8358878E01075F1F4FCE0163
:101930000196B8010E949E0F81E1E82EF12CEC0E79
:10194000FD1ECE010596B7010E949E0F998592302B
:1019500008F483C08989823008F47BC02A853A89DB
:1019600023272A87943011F0923021F4981709F038
:101970006CC071C0843039F41D861E861F86188A9B
:101980001C861B866AC0823019F484E0898765C092
:101990008B859C852B893C89821B930B9C878B872D
:1019A0002D853E854F855889ED88FE880F89188DD5
:1019B0002E153F054007510738F4220F331F441FEF
:1019C000551F01979C878B876FE170E0A12CB12C8C
:1019D000C12CA0E4DA2E80E090E0DC012E153F055A
:1019E0004007510740F08A299B29AC29BD292E19AF
:1019F0003F09400B510BD694C794B794A794220F7C
:101A0000331F441F551F6150704041F76FE7E62EAA
:101A1000F12C012D112DE822F9220A231B2360E469
:101A2000E616F1040105110561F487FD0AC02115D0
:101A300031054105510529F0805C9F4FAF4FBF4FE5
:101A400080788D879E87AF87B88B8E01075F1F4F89
:101A500004C0870102C007E012E0C8010E94D00E56
:101A60006896EAE00C949010A8E1B0E0EAE3FDE0AB
:101A70000C94781069837A838B839C832D833E83B7
:101A80004F8358878E01075F1F4FCE010196B80123
:101A90000E949E0F81E1E82EF12CEC0EFD1ECE017E
:101AA0000596B7010E949E0F8985823040F0898992
:101AB000823028F0C801B7010E94071001C081E000
:101AC0006896E6E00C949410A8E1B0E0EAE6FDE048
:101AD0000C94781069837A838B839C832D833E8357
:101AE0004F8358878E01075F1F4FCE010196B801C3
:101AF0000E949E0F81E1E82EF12CEC0EFD1ECE011E
:101B00000596B7010E949E0F8985823040F0898931
:101B1000823028F0C801B7010E94071001C08FEF82
:101B20006896E6E00C949410A8E1B0E0EAE9FDE0E4
:101B30000C94781069837A838B839C832D833E83F6
:101B40004F8358878E01075F1F4FCE010196B80162
:101B50000E949E0F81E1E82EF12CEC0EFD1ECE01BD
:101B60000596B7010E949E0F8985823040F08989D1
:101B7000823028F0C801B7010E94071001C081E03F
:101B80006896E6E00C949410A8E0B0E0EAECFDE082
:101B90000C9478107B018C0183E08983D801C70104
:101BA0008827B7FD83959927AA27BB27282F8A83E3
:101BB000E114F1040105110519F482E0898337C0AD
:101BC0008EE190E09C838B83222389F080E0E816ED
:101BD00080E0F80680E0080780E8180769F11095B2
:101BE0000095F094E094E11CF11C011D111DED82A3
:101BF000FE820F831887C801B7010E94760E9C01F0
:101C0000215030401216130694F4022E04C0EE0C3C
:101C1000FF1C001F111F0A94D2F7ED82FE820F8372
:101C200018878EE190E0821B930B9C838B83CE01FF
:101C300001960E94D00E04C060E070E080E09FEC4E
:101C40002896E6E00C949410ACE0B0E0EAE2FEE006
:101C50000C947C1069837A838B839C83CE010196DC
:101C6000BE016B5F7F4F0E949E0F8D81823081F19C
:101C7000823070F1843021F48E81882369F10AC0AA
:101C80002F81388537FD24C06E812F3131053CF01E
:101C9000662311F120E030E040E050E821C08EE101
:101CA00090E0821B930B29853A854B855C8504C0A7
:101CB00056954795379527958A95D2F7662381F0F3
:101CC00050954095309521953F4F4F4F5F4F08C03D
:101CD00020E030E0A90104C02FEF3FEF4FEF5FE7B6
:101CE000B901CA012C96E2E00C949810AF92BF9211
:101CF000CF92DF92EF92FF920F931F937B018C01A3
:101D000080E0E81680E0F80681E0080780E0180728
:101D100058F4EFEFEE16F1040105110509F090F407
:101D200080E090E0DC0117C0F0E0EF16F0E0FF0685
:101D3000F0E00F07F1E01F0750F480E190E0A0E031
:101D4000B0E009C088E090E0A0E0B0E004C088E125
:101D500090E0A0E0B0E020E230E040E050E0281B5E
:101D6000390B4A0B5B0B5701680104C0D694C7942A
:101D7000B794A7948A95D2F7D601C501815F9D4F8C
:101D8000FC018081281B310941095109C9011F91BA
:101D90000F91FF90EF90DF90CF90BF90AF9008959C
:101DA000EF92FF920F931F93CF93DF93FC01248157
:101DB00035814681578161818081823020F4406184
:101DC000EFEFF0E0A3C0843009F49BC0823009F447
:101DD00092C0211531054105510509F48FC00280DB
:101DE000F381E02D8FEFE238F8070CF05AC0C2E81B
:101DF000DFEFCE1BDF0BCA31D1056CF579018A010B
:101E00000C2E04C016950795F794E7940A94D2F720
:101E100081E090E0A0E0B0E00C2E04C0880F991F94
:101E2000AA1FBB1F0A94D2F70197A109B109822307
:101E30009323A423B52321E030E040E050E0009755
:101E4000A105B10519F420E030E0A9012E293F29B0
:101E5000402B512B03C020E030E0A901DA01C90179
:101E60008F779070A070B07080349105A105B10596
:101E700039F427FF09C0205C3F4F4F4F5F4F04C02C
:101E8000215C3F4F4F4F5F4FE1E0F0E0203080E0BA
:101E9000380780E0480780E4580728F5E0E0F0E0E4
:101EA00022C0E038F1056CF5E158FF4FDA01C901B5
:101EB0008F779070A070B07080349105A105B10546
:101EC00039F427FF09C0205C3F4F4F4F5F4F04C0DC
:101ED000215C3F4F4F4F5F4F57FF05C056954795C9
:101EE00037952795319687E05695479537952795ED
:101EF0008A95D1F70BC0E0E0F0E005C0E0E0F0E04B
:101F000005C0EFEFF0E020E030E0A9018E2F8795CB
:101F100088278795942F9F77679566276795E6951D
:101F2000E22EA92FA82BFE2FF62B622F732F8A2FBC
:101F30009F2FCDB7DEB7E6E00C949410DC01FB01D7
:101F40002C9111963C91119712968C911297482FD3
:101F50004F7750E0982F991F9927991F13966C91EE
:101F60001397862F880F892B90E0661F6627661FC0
:101F70006183009739F5211531054105510511F4AB
:101F800082E029C082E89FEF9383828367E0220F7B
:101F9000331F441F551F6A95D1F783E0808309C022
:101FA000220F331F441F551F828193810197938312
:101FB0008283203080E0380780E0480780E45807BB
:101FC00078F320C08F3F910579F421153105410543
:101FD000510519F484E08083089544FF03C081E033
:101FE000808310C010820EC08F57904093838283ED
:101FF00083E0808387E0220F331F441F551F8A959B
:10200000D1F7506424833583468357830895FC01B8
:10201000DB019081923008F449C08C91823008F441
:1020200045C0943051F461818430B1F511962C9102
:10203000119730E0261B310941C0843021F09230E5
:1020400041F48230B1F111968C9111978823A1F15E
:102050002DC06181823001F111968C911197681722
:10206000D9F42281338112968D919C911397821716
:10207000930794F028173907BCF0248135814681F5
:10208000578114968D919D910D90BC91A02D821732
:102090009307A407B50718F4662341F00DC028176D
:1020A00039074A075B0728F4662331F021E030E066
:1020B00005C020E030E002C02FEF3FEFC9010895D6
:1020C000991B79E004C0991F961708F0961B881F8A
:1020D0007A95C9F7809508952F923F924F925F921B
:1020E0006F927F928F929F92AF92BF92CF92DF9228
:1020F000EF92FF920F931F93CF93DF93CDB7DEB78D
:10210000CA1BDB0B0FB6F894DEBF0FBECDBF099420
:102110002A88398848885F846E847D848C849B8477
:10212000AA84B984C884DF80EE80FD800C811B8185
:10213000AA81B981CE0FD11D0FB6F894DEBF0FBEB4
:10214000CDBFED010895FB019F01E8944230C4F03A
:102150004532B4F44A3029F497FB1EF490958195EA
:102160009F4F642F77270E941D14805D8A330CF0E7
:10217000895D8193CB010097A1F716F45DE251933D
:102180001082C9010C94AD13AEE0B0E0EAECF0E1CE
:102190000C947C1085E08C838B899C899A8389833D
:1021A0009E01295E3F4FCE0101966D897E89A9016E
:1021B0000E9473122E96E2E00C94981020FD09C044
:1021C000FC0123FD05C022FF02C07383628351839B
:1021D00040830895EF92FF920F931F9344FD10C028
:1021E00046FD10C0DB01FC01AA0FBB1FEE1FFF1F45
:1021F0001094D1F76A0F7B1F8E1F9F1F31E003C021
:1022000033E001C034E0660F771F881F991F3150FB
:10221000D1F77B018C01E20EF11C011D111DA801FB
:102220009701B701CA011F910F91FF90EF90089598
:10223000EF92FF920F931F93CF93DF938C01C8010E
:102240000E94BD13EC0197FD09C00E949A130097EC
:10225000B1F77E01CE01B8010E94FF13CE01CDB7C8
:10226000DEB7E6E00C9494108F929F92AF92BF92EB
:10227000DF92EF92FF920F931F93DF93CF930F9212
:10228000CDB7DEB74C01D62E5A01122F0E94BD13D6
:102290008B3219F08D3249F41068DA9409F46CC06D
:1022A000C4010E94BD1397FD67C0312F3D7F232FCE
:1022B0002073F1F48033E1F4DA9409F448C0C401E6
:1022C00039830E94BD13398197FD41C03260883740
:1022D00011F0883559F43064DA94C9F1C4013983B6
:1022E0000E94BD13398197FF03C031C036FF3061B2
:1022F000EE24FF248701282F2053283090F034FD4E
:1023000009C02A3070F036FF05C02F7D422F4151A1
:10231000463030F0B40139830E94FF13398114C074
:102320002750C801B701432F39830E94EA107B016F
:102330008C0139813260DA9469F0C40139830E94DA
:10234000BD13398197FFD7CF31FD04C015C0EE24EE
:10235000FF24870137FF08C010950095F094E094A2
:10236000E11CF11C011D111DC501B801A701232F9E
:102370000E94DE1081E001C080E00F90CF91DF91DC
:102380001F910F91FF90EF90DF90BF90AF909F90C3
:102390008F900895A1E2B0E0E0EDF1E10C947010AF
:1023A0006C018A0179019E012F5F3F4F80E2F901A4
:1023B00011928A95E9F7F601838080E090E0BB24D2
:1023C000992470E0A1E0B0E0F70183FCA59083FEC2
:1023D000A1907F01AA2009F47FC0FA2DFE3511F4E7
:1023E000009751F1472F50E04817590744F44A2D00
:1023F0004D3551F14D3219F4992001F103C0992066
:1024000009F4BA2C4A2D469546954695F901E40FF4
:10241000F11D4A2D47703D0102C0660C771C4A959C
:10242000E2F7908096289082AB1459F0AB1410F428
:10243000A394E8CFAA94E6CF71E004C099249394C2
:1024400001C099240196C0CF992019F08E81806235
:102450008E83772351F0CE018196FE013196208143
:1024600020952193E817F907D1F7BB24B3944E01C7
:102470000894811C911C01C0BB24C60169A30E9461
:10248000BD1369A197FD20C0282F26952695269576
:10249000F401E20FF11D208130E0AC014770507073
:1024A00002C0359527954A95E2F720FD04C0B60194
:1024B0000E94FF1309C00115110519F0F80181935D
:1024C0008F016150C9F602C0BB2031F4011511051E
:1024D00029F0F801108202C0EE24FF24C701A19662
:1024E000EEE00C948C104F925F926F927F929F92CD
:1024F000AF92BF92CF92DF92EF92FF920F931F9312
:10250000DF93CF930F92CDB7DEB77C016B013A0119
:10251000FC011782168200E0E9C0812F90E00E9442
:102520009A13009721F0C7010E941811DFC01532DD
:1025300041F4F601A3FC3591A3FE31916F013532D0
:1025400061F4C7010E94BD1397FDDCC0181709F4A0
:10255000CDC0B7010E94FF13D7C03A3239F4A3FCB3
:102560003591A3FE31916F0111E001C010E0992473
:102570000FC01260692D70E080E090E040E20E94A0
:10258000EA10962EF601A3FC3591A3FE31916F015E
:10259000232F20532A3068F311FF03C0992019F428
:1025A000B3C099249A94383619F03C3689F409C09E
:1025B000F601A3FC3591A3FE31916F01383641F449
:1025C00018601460F601A3FC3591A3FE31916F01F0
:1025D000332309F499C088E690E0632F70E03983D3
:1025E0000E94A2133981009709F48EC0812F10FD3B
:1025F00008C0F3014080518042E050E0640E751E37
:1026000002C0442455243E3651F4F70146815781D7
:1026100060E070E0C201212F0E94DE1067C03336F7
:1026200091F481FD02C099249394C7010E94BD13C7
:1026300097FD68C04114510419F0F20181932F01F4
:102640009A9499F751C03B3559F4C701692DA201FD
:1026500096010E94CA116C01009709F045C03FC065
:10266000C70139830E941811398197FD4BC03F364D
:1026700059F1303728F4343629F1393639F527C085
:10268000333719F0353711F51DC0C7010E94BD134E
:102690005C0197FD11C00E949A13009729F0C501B3
:1026A000B7010E94FF1308C04114510419F0F20150
:1026B000A1922F019A9449F741145104A9F0F20113
:1026C000108212C0106203C0106101C01064C70103
:1026D000692DA201212F0E943411882329F4F701CA
:1026E0008381807379F410C010FF0F5FF701A3801E
:1026F000F601A3FC1591A3FE11916F01112309F0BE
:102700000CCF02C0002311F010E002C00FEF1FEF4A
:10271000C8010F90CF91DF911F910F91FF90EF9023
:10272000DF90CF90BF90AF909F907F906F905F9021
:102730004F90089591117EC0803219F089508550D4
:10274000D0F70895FC010590061621F00020D9F776
:10275000C00108953197CF010895DC01FC01672F76
:1027600071917723E1F7329704C07C916D93708368
:102770006291AE17BF07C8F30895CF93DF93EC01C2
:102780003B8130FF36C036FF09C03F7B3B838E81E3
:102790009F8101969F838E832A8129C032FF0FC0BB
:1027A000E881F9818081992787FD9095009719F438
:1027B00030623B831EC03196F983E88311C0EA85FD
:1027C000FB85CE01099597FF0BC02B813FEF8F3F13
:1027D000930711F480E101C080E2822B8B8309C052
:1027E0002E813F812F5F3F4F3F832E83282F30E084
:1027F00002C02FEF3FEFC901DF91CF910895FB0198
:10280000238120FF13C026FD11C03FEF8F3F9307A8
:1028100069F0828320642F7D2383268137812150B4
:10282000304037832683282F30E002C02FEF3FEF60
:10283000C9010895992788270895AA1BBB1B51E158
:1028400007C0AA1FBB1FA617B70710F0A61BB70B20
:10285000881F991F5A95A9F780959095BC01CD01C5
:062860000895F894FFCF7B
:102866002E004A616E00466562004D61720041703D
:1028760072004D6179004A756E004A756C004175AB
:102886006700536570004F6374004E6F76004465B1
:1028960063002E20003A0054683A20004320487511
:1028A6003A200025000A45726B616E6E74652045FC
:1028B600696E676162653A0A0025642D25642D25D7
:1028C600645425643A25643A256454682564487539
:1028D60025640056657262756E64656E20756E6459
:1028E600206265726569742066C3BC72206469657E
:1028F6002045696E676162653A0A0045696E6761DF
:102906006265666F726D6174202D3E202859595993
:10291600592D4D4D2D44445468683A6D6D3A696998
:10292600546858584875595929202B2043523A0A59
:10293600002D2D2D2D2D2D2D2D2D2D2D2D2D2D2DEE
:102946002D2D2D2D2D2D2D2D2D2D2D2D2D2D2D2DB1
:102956002D2D2D2D2D2D2D2D2D2D2D2D2D2D2D2DA1
:102966002D2D2D2D2D0A0000000000000000000076
:10297600010202030303030404040404040404051B
:1029860005050505050505050505050505050506F0
:1029960006060606060606060606060606060606D1
:1029A60006060606060606060606060606060607C0
:1029B60007070707070707070707070707070707A1
:1029C6000707070707070707070707070707070791
:1029D6000707070707070707070707070707070781
:1029E6000707070707070707070707070707070870
:1029F6000808080808080808080808080808080851
:102A06000808080808080808080808080808080840
:102A16000808080808080808080808080808080830
:102A26000808080808080808080808080808080820
:102A36000808080808080808080808080808080810
:102A46000808080808080808080808080808080800
:102A560008080808080808080808080808080808F0
:102A660008080808080808080808080808080800E8
:00000001FF
