S01000004C616234417566332E7372656382
S11300000C9434000C9446000C9446000C94460066
S11300100C9446000C9446000C9446000C94460044
S11300200C9446000C9446000C9446000C94460034
S11300300C9446000C945A000C9446000C94460010
S11300400C9446000C9446000C9446000C94460014
S11300500C9446000C94A4000C9446000C944600A6
S11300600C9446000C94460011241FBECFEFD8E038
S1130070DEBFCDBF21E0A0E0B1E001C01D92A630FB
S1130080B207E1F70E94D9000C9433020C940000EB
S1130090EAE7F0E0808180648083089585E48093BA
S11300A07C008AE880937A0080E280937E000E943C
S11300B0480008951F920F920FB60F9211242F93A8
S11300C03F934F935F936F937F938F939F93AF93DC
S11300D0BF93EF93FF93789420E030E040E85AE335
S11300E060910201709103018091040190910501D6
S11300F00E949E0120E030E044E353E40E949E010C
S11301000E94020170930101609300012BE0269F7D
S1130110A001279F500D1124CA018053984F90933A
S1130120890080938800FF91EF91BF91AF919F91D7
S11301308F917F916F915F914F913F912F910F908C
S11301400FBE0F901F9018951F920F920FB60F922B
S113015011242F933F934F935F936F937F938F93C8
S11301609F93AF93BF93EF93FF937894609178003C
S11301707091790080E090E00E9438016093020160
S11301807093030180930401909305010E94480039
S1130190FF91EF91BF91AF919F918F917F916F915B
S11301A05F914F913F912F910F900FBE0F901F9031
S11301B0189584E084B9E0E8F0E08081826A808365
S11301C0E1E8F0E080818A61808380E49CE9909397
S11301D087008093860084B18FEF84B92091000159
S11301E0309101014BE0429FC001439F900D1124C7
S11301F08053984F90938900809388000E944E000A
S11302007894FFCF0E9409016894B1110C9498016D
S113021008950E947D0188F09F5798F0B92F99277F
S1130220B751B0F0E1F0660F771F881F991F1AF0DD
S1130230BA95C9F714C0B13091F00E949701B1E0AA
S113024008950C949701672F782F8827B85F39F0A9
S1130250B93FCCF3869577956795B395D9F73EF476
S113026090958095709561957F4F8F4F9F4F08951E
S1130270E89409C097FB3EF490958095709561953C
S11302807F4F8F4F9F4F9923A9F0F92F96E9BB27F2
S11302909395F695879577956795B795F111F8CF6E
S11302A0FAF4BB0F11F460FF1BC06F5F7F4F8F4FD9
S11302B09F4F16C0882311F096E911C0772321F0CF
S11302C09EE8872F762F05C0662371F096E8862F67
S11302D070E060E02AF09A95660F771F881FDAF7BE
S11302E0880F9695879597F9089557FD9058440F70
S11302F0551F59F05F3F71F04795880F97FB991F81
S113030061F09F3F79F0879508951216130614063D
S1130310551FF2CF4695F1DF08C0161617061806CA
S1130320991FF1CF86957105610508940895E894A5
S1130330BB2766277727CB0197F908950E94B1015F
S11303400C9422020E94140238F00E941B0220F036
S1130350952311F00C940B020C94110211240C94AB
S113036098010E94750170F3959FC1F3950F50E0B9
S1130370551F629FF001729FBB27F00DB11D639F53
S1130380AA27F00DB11DAA1F649F6627B00DA11DF9
S1130390661F829F2227B00DA11D621F739FB00D9F
S11303A0A11D621F839FA00D611D221F749F33270F
S11303B0A00D611D231F849F600D211D822F762FA8
S11303C06A2F11249F5750409AF0F1F088234AF085
S11303D0EE0FFF1FBB1F661F771F881F91505040F1
S11303E0A9F79E3F510580F00C940B020C949801E0
S11303F05F3FE4F3983ED4F3869577956795B79578
S1130400F795E7959F5FC1F7FE2B880F911D969591
S1130410879597F9089597F99F6780E870E060E001
S113042008959FEF80EC089500240A941616170689
S113043018060906089500240A94121613061406D1
S113044005060895092E0394000C11F4882352F034
S1130450BB0F40F4BF2B11F460FF04C06F5F7F4FEC
S10D04608F4F9F4F0895F894FFCFCB
S9030000FC
