:100000000C9434000C9438020C9446000C94460076
:100010000C9446000C9446000C9446000C94460048
:100020000C9446000C9446000C9446000C94460038
:100030000C9446000C9446000C9446000C94460028
:100040000C9446000C9446000C9446000C94460018
:100050000C9446000C9446000C9446000C94460008
:100060000C9446000C94460011241FBECFEFD8E03C
:10007000DEBFCDBF21E0A0E0B1E001C01D92A23003
:10008000B207E1F70E9463020C9489020C9400000D
:100090001092B90088E48093B80084E08093BC009B
:1000A00080E284B9089515B884EA8093BC008091F9
:1000B000BC008823E4F7089584E98093BC00809114
:1000C000BC0084FDFCCF08958093BB0084E880933E
:1000D000BC008091BC008823E4F7089584E88093F5
:1000E000BC008091BC008823E4F78091BB00089598
:1000F0008091B900887F089580E285B90E945C00F4
:1001000008959DEC899F912D11249695969596952D
:10011000392F330F232F220F220F230F821B20E1B1
:10012000929F800D112408950E9453000E94780030
:10013000883011F00E947C0080ED0E9464000E94D3
:100140007800883111F00E947C008EE00E946400EB
:100150000E947800883211F00E947C0080E00E94AA
:1001600064000E947800883211F00E947C000E9496
:100170005C0008959F92AF92BF92CF92DF92EF9270
:10018000FF920F931F93CF93DF93CDB7DEB72797DF
:100190000FB6F894DEBF0FBECDBF182FB62E842F3A
:1001A000F22E90EDC91A97E0D90A0E948100982E8C
:1001B0008B2D0E948100A82E812F0E948100B82ED5
:1001C000802F0E948100D82E8E2D0E948100182F32
:1001D0008C2D0E9481009982AA82BB82FC82DD82E2
:1001E0001E838F830E9453000E947800883011F094
:1001F0000E947C0080ED0E9464000E94780088319B
:1002000011F00E947C0080E00E9464000E9478004F
:10021000883211F00E947C0010E010C0E1E0F0E0B4
:10022000EC0FFD1FE10FF11D80810E9464000E9410
:100230007800883211F00E947C001F5F183070F344
:100240000E945C0027960FB6F894DEBF0FBECDBFAC
:10025000DF91CF911F910F91FF90EF90DF90CF90A2
:10026000BF90AF909F900895CF93C82F0E945300E6
:100270000E947800883011F00E947C0080ED0E947E
:1002800064000E947800883111F00E947C008C2F5D
:100290000E9464000E947800883211F00E947C0065
:1002A0000E9453000E947800803111F00E947C006F
:1002B00081ED0E9464000E947800803411F00E9459
:1002C0007C000E946E00C82F0E947800883511F0D3
:1002D0000E947C000E945C008C2FCF910895CF93E8
:1002E000DF93D82FC62F0E9453000E9478008830D9
:1002F00011F00E947C0080ED0E9464000E94780052
:10030000883111F00E947C008D2F0E9464000E94B1
:100310007800883211F00E947C008C2F0E946400CB
:100320000E947800883211F00E947C000E945C00DC
:10033000DF91CF9108958EE00E943401682F6460B0
:100340008EE00E946F010895611102C081700895CE
:10035000613011F482700895623011F48470089550
:10036000633011F488700895643011F48071089539
:10037000653011F480720895663011F48074089528
:10038000673011F48078089580E008950F931F93EB
:10039000CF93DF93C82F60E00E94A401082F079538
:1003A0000027079561E08C2F0E94A401182F179554
:1003B0001127179562E08C2F0E94A401D82FD795A2
:1003C000DD27D79563E08C2F0E94A401C82FC79525
:1003D000CC27C7950E9453000E947800883011F006
:1003E0000E947C0080ED0E9464000E9478008831A9
:1003F00011F00E947C0087E00E9464000E94780057
:10040000883211F00E947C00802F0E9464000E94BC
:100410007800883211F00E947C00812F0E946400D5
:100420000E947800883211F00E947C008D2F0E947B
:1004300064000E947800883211F00E947C008C2FAA
:100440000E9464000E947800883211F00E947C00B3
:100450000E945C00DF91CF911F910F9108958EE073
:100460000E943401682F61608EE00E946F01089540
:100470001F920F920FB60F9211248F939F9380912A
:100480000001909101018C33910529F41092010132
:100490001092000105C00196909301018093000124
:1004A0008091000190910101880F991F880F991F79
:1004B000880F991F84608BB99F918F910F900FBE09
:1004C0000F901F9018958FE00E94C6010E9448006F
:1004D0000E9494000F2EF5E1CF2ED12CF02D0F2E7F
:1004E000F6E0EF2EF02D01E027E04CE06CE08CE030
:1004F0000E94BA000E949B010E942F0288EF8AB9D5
:1005000084E08BB982E08093690081E08DBB7894B0
:06051000FFCFF894FFCFBD
:00000001FF
