S01000004C616235417566312E7372656383
S11300000C9434000C946F020C9446000C9446003B
S11300100C9446000C9446000C9446000C94460044
S11300200C9446000C9446000C9446000C94460034
S11300300C9446000C9446000C9446000C94460024
S11300400C9446000C9446000C9446000C94460014
S11300500C9446000C9446000C9446000C94460004
S11300600C9446000C94460011241FBECFEFD8E038
S1130070DEBFCDBF21E0A0E0B1E001C01D92A230FF
S1130080B207E1F70E94B3020C94DB020C94000067
S11300901092B90088E48093B80084E08093BC0097
S11300A0089584EA8093BC008091BC008823E4F71F
S11300B0089584E98093BC008091BC0084FDFCCF4A
S11300C008958093BB0084E88093BC008091BC00B9
S11300D08823E4F7089584E88093BC008091BC00F1
S11300E08823E4F78091BB0008958091B900887F4C
S11300F008950E94590008959DEC899F912D112423
S1130100969596959695392F330F232F220F220F0C
S1130110230F821B20E1929F800D112408950E94D9
S113012051000E947500883011F00E94790080ED22
S11301300E9461000E947500883111F00E947900CC
S11301408EE00E9461000E947500883211F00E94C6
S1130150790080E00E9461000E947500883211F0ED
S11301600E9479000E94590008959F92AF92BF9215
S1130170CF92DF92EF92FF920F931F93CF93DF936F
S1130180CDB7DEB727970FB6F894DEBF0FBECDBF4D
S1130190182FB62E842FF22E90EDC91A97E0D90AA3
S11301A00E947C00982E8B2D0E947C00A82E812F0B
S11301B00E947C00B82E802F0E947C00D82E8E2DA9
S11301C00E947C00182F8C2D0E947C009982AA82A8
S11301D0BB82FC82DD821E838F830E9451000E94B9
S11301E07500883011F00E94790080ED0E94610052
S11301F00E947500883111F00E94790080E00E940D
S113020061000E947500883211F00E94790010E0AC
S113021010C0E1E0F0E0EC0FFD1FE10FF11D808163
S11302200E9461000E947500883211F00E947900DA
S11302301F5F183070F30E94590027960FB6F89488
S1130240DEBF0FBECDBFDF91CF911F910F91FF9005
S1130250EF90DF90CF90BF90AF909F900895CF9391
S1130260C82F0E9451000E947500883011F00E942E
S1130270790080ED0E9461000E947500883111F0C0
S11302800E9479008C2F0E9461000E9475008832C0
S113029011F00E9479000E9451000E947500803183
S11302A011F00E94790081ED0E9461000E947500A6
S11302B0803411F00E9479000E946B00C82F0E94C4
S11302C07500883511F00E9479000E9459008C2F26
S11302D0CF910895CF93DF93D82FC62F0E9451005A
S11302E00E947500883011F00E94790080ED0E9410
S11302F061000E947500883111F00E9479008D2FF1
S11303000E9461000E947500883211F00E947900F9
S11303108C2F0E9461000E947500883211F00E94A7
S113032079000E945900DF91CF9108958EE00E94D8
S11303302F01682F64608EE00E946A0108956111A4
S113034002C081700895613029F4827090E095951F
S113035087950895623039F4847090E09595879577
S1130360959587950895633049F4887090E0959544
S1130370879595958795959587950895643049F463
S1130380807190E095958795959587959595879536
S11303900895653059F4807290E095958795959508
S11303A0879595958795959587950895663069F411
S11303B0807490E095958795959587959595879503
S11303C095958795959587950895673059F4807824
S11303D090E0082E892F000C881F990B000C881FB1
S11303E0991F089580E008950F931F93CF93DF938F
S11303F0C82F60E00E949F01082F079500270795EA
S113040061E08C2F0E949F01182F179511271795D3
S113041062E08C2F0E949F01D82FD795DD27D795B6
S113042063E08C2F0E949F01C82FC795CC27C795E6
S11304300E9451000E947500883011F00E947900DA
S113044080ED0E9461000E947500883111F00E94C5
S1130450790087E00E9461000E947500883211F0E3
S11304600E947900802F0E9461000E9475008832EA
S113047011F00E947900812F0E9461000E94750092
S1130480883211F00E9479008D2F0E9461000E9431
S11304907500883211F00E9479008C2F0E9461004F
S11304A00E947500883211F00E9479000E94590060
S11304B0DF91CF911F910F9108958EE00E942F013B
S11304C0682F61608EE00E946A0108958FE00E94A7
S11304D02F01682F6E7F8FE00E946A0108951F929A
S11304E00F920FB60F9211242F933F934F935F9364
S11304F06F937F938F939F93AF93BF93EF93FF93E8
S113050080910001909101018C33910529F410929E
S113051001011092000105C001969093010180939E
S1130520000188B18E7F88B928B19091000195FBB4
S1130530882780F9822B88B9809100018F7185B951
S11305400E946602FF91EF91BF91AF919F918F91AD
S11305507F916F915F914F913F912F910F900FBEBB
S11305600F901F9018951AB88FEF84B9C1E0C7B9DE
S11305700E9448000E948F000F2EF5E1CF2ED12C4F
S1130580F02D0F2EF6E0EF2EF02D01E027E04CE0E9
S11305906CE08CE00E94B5008FE00E94F4010E94A0
S11305A05D020E94960184E08BB982E08093690029
S10D05B0CDBB7894FFCFF894FFCF81
S9030000FC
