:100000000C9434000C9449000C9449000C94490061
:100010000C9449000C9449000C9449000C9449003C
:100020000C9449000C9449000C9449000C9449002C
:100030000C9449000C9449000C9449000C9449001C
:100040000C9449000C9449000C9449000C9449000C
:100050000C9449000C9449000C9449000C944900FC
:100060000C9449000C94490011241FBECFEFD8E036
:10007000DEBFCDBF11E0A0E0B1E0E4E0F2E002C0FD
:1000800005900D92A630B107D9F70E94EC000C94B0
:1000900000010C9400008BB180628BB985E38A95D6
:1000A000F1F700008BB18F7D8BB908959BB1907FE4
:1000B0009BB99BB182958F70982B9BB90E944B0086
:1000C0000895CF93C82F8BB180618BB98C2F0E947C
:1000D00056008C2F8295807F0E9456008AE78A9571
:1000E000F1F700C0CF910895CF93C82F8BB18F7EC9
:1000F0008BB98C2F0E9456008C2F8295807F0E9496
:10010000560080E78A95F1F7CF91089581E00E942B
:1001100074008FE99FE00197F1F700C00000089597
:100120008AB18F638AB98BB1807C8BB98FE295E7F6
:100130000197F1F700C0000080E30E9456008FE0B5
:1001400097E20197F1F700C000000E944B008FEC8E
:1001500097E00197F1F700C000000E944B008FEC80
:1001600097E00197F1F700C0000080E20E9456007E
:100170008FE097E20197F1F700C0000088E20E944B
:1001800074008CE00E94740086E00E9474000E945B
:1001900086000895623059F018F4613031F0089506
:1001A000633039F0643039F00895805805C08054C8
:1001B00003C0805701C080530E9474000895CF93FC
:1001C000DF93EC0103C021960E94610088818111B8
:1001D000FACFDF91CF9108950E94900081E00E94B4
:1001E000610082E00E94610083E00E94610062E0A1
:1001F00080E00E94CA0080E091E00E94DF00FFCF13
:04020000F894FFCFA0
:060204004E696C7300005E
:00000001FF
