S01000004C616233417566322E7372656384
S11300000C943C000C944E000C944E000C944E0046
S11300100C944E000C944E000C944E000C944E0024
S11300200C944E000C944E000C944E000C944E0014
S11300300C944E000C944E000C944E000C944E0004
S11300400C94C9000C944E000C944E000C944E0079
S11300500C944E000C944E000C944E000C944E00E4
S11300600C944E000C944E008A009100940097006A
S11300709A009D00A000A40011241FBECFEFD8E079
S1130080DEBFCDBF21E0A0E0B1E001C01D92AC30E5
S1130090B207E1F70E9445010C945D010C94000045
S11300A01A99FECF80910A0190910B01892B81F45A
S11300B02C991BC081E090E090930B0180930A017E
S11300C0109203011092020185B1886085B90DC0B8
S11300D010920B0110920A0110920101109200017A
S11300E02C9903C085B1877F85B981E090E008959C
S11300F01BB885B18E7F85B985B18D7F85B9E091B7
S11301000601F0910701E830F10538F5EC5CFF4F8A
S11301100C94570184E08BB91092090110920801E4
S11301201CC088E08BB919C080E18BB916C080E28D
S11301308BB913C080E48BB910C080E88BB90DC0B3
S113014085B1816085B909C085B1826085B981E0D6
S113015090E09093090180930801809108019091A7
S11301600901892B51F080910601909107010197B3
S1130170909307018093060109C080910601909134
S113018007010196909307018093060181E090E0B6
S113019008951F920F920FB60F9211242F933F933D
S11301A04F935F936F937F938F939F93AF93BF937B
S11301B0EF93FF9380910401909105010C9761F4F2
S11301C080910A0190910B01019711F40E9478002B
S11301D01092050110920401809102019091030193
S11301E08A37910559F480910A0190910B01019786
S11301F029F42C9903C085B1806185B980910001EF
S113020090910101843F910599F480910A019091A4
S11302100B01892B69F41BB885B18E7F85B985B133
S11302208D7F85B985B1877F85B985B18F7E85B985
S113023080910401909105010196909305018093AA
S113024004018091020190910301019690930301AE
S11302508093020180910001909101010196909395
S11302600101809300017894FF91EF91BF91AF91C8
S11302709F918F917F916F915F914F913F912F91BA
S11302800F900FBE0F901F9018958FEF8AB91BB86F
S11302908BE184B984E085B985E085BD81E08093F4
S11302A06E0078941A9BFECF0E945000FBCFEE0F95
S11102B0FF1F0590F491E02D0994F894FFCF00
S9030000FC
