S01400004C61623656657273756368322E73726563B9
S11300000C9434000C9451000C9451000C94510045
S11300100C9451000C9451000C9451000C94510018
S11300200C9451000C9451000C9451000C94510008
S11300300C9451000C9451000C9451000C945100F8
S11300400C9451000C9451000C9451000C945100E8
S11300500C9451000C9451000C9451000C945100D8
S11300600C9451000C94510011241FBECFEFD8E022
S1130070DEBFCDBF11E0A0E0B1E0EEEAF6E002C0E1
S113008005900D92A430B107D9F721E0A4E0B1E0C6
S113009001C01D92AB30B207E1F70E94F8020C9444
S11300A055030C9400005D9A8AE68A95F1F700C026
S11300B05D9808959BB1907F9BB99BB182958F7099
S11300C0982B9BB90C9453001092B90088E4809348
S11300D0B80084E08093BC00089584EA8093BC0057
S11300E08091BC0087FFFCCF089584E98093BC0015
S11300F08091BC0084FDFCCF08958093BB0084E80C
S11301008093BC008091BC0087FFFCCF089584E8F5
S11301108093BC008091BC0087FFFCCF8091BB0022
S11301200895982F92959F708F702AE0929F800D6A
S1130130112408956AE00E94140320E1829F900D27
S11301401124892F0895AF92BF92CF92DF92EF923C
S1130150FF920F931F93CF93DF93CDB7DEB727970B
S11301600FB6F894DEBF0FBECDBF182FD62E842F46
S1130170F22E0E949A00A82E8D2D0E949A00B82E6D
S1130180812F0E949A00D82E802F0E949A00082F57
S11301908E2D0E949A00182F80E38C0D0E949A00E5
S11301A0A982BA82DB82FC820D831E838F830E9424
S11301B06D008091B900887F883011F00E9475002D
S11301C080ED0E947D008091B900887F883111F014
S11301D00E94750080E00E947D008091B900887FB4
S11301E0883211F00E9475008E010F5F1F4F7E014F
S11301F089E0E80EF11CF80181918F010E947D00D5
S11302008091B900887F883211F00E9475000E1524
S11302101F0589F727960FB6F894DEBF0FBECDBF32
S1130220DF91CF911F910F91FF90EF90DF90CF90CE
S1130230BF90AF900C947500CF93C82F0E946D00AF
S11302408091B900887F883011F00E94750080ED9C
S11302500E947D008091B900887F883111F00E944E
S113026075008C2F0E947D008091B900887F8832B0
S113027011F00E9475000E946D008091B900887F82
S1130280803111F00E94750081ED0E947D00809103
S1130290B900887F803411F00E9475000E948700A5
S11302A0C82F8091B900887F883511F00E947500AD
S11302B00E9475008C2FCF91089580E00E941C014C
S11302C08F70089581E00E941C018F70089582E070
S11302D00E941C018F70089584E00E941C018F709D
S11302E0089585E00E941C018F70089586E00E94A5
S11302F01C018F70089580E00E941C018077829514
S11303008F70089581E00E941C0182958F7008957A
S113031082E00E941C01807382958F70089584E0AE
S11303200E941C01807382958F70089585E00E945D
S11303301C0182958F70089586E00E941C018295AD
S11303408F700895CF93C82F5C9A0E945A008C2F07
S11303508295807F0E945A0085EF8A95F1F700000C
S1130360CF910895CF93C82F5C980E945A008C2F88
S11303708295807F0E945A0080EE8A95F1F7CF9192
S1130380089581E00E94B2018FE39FE10197F1F7A4
S113039000C0000008958AB18F638AB98BB1807C54
S11303A08BB98FE59AEE0197F1F700C0000080E366
S11303B00E945A008FE19EE40197F1F700C000000B
S11303C00E9453008FE99FE00197F1F700C00000FD
S11303D00E9453008FE99FE00197F1F700C00000ED
S11303E080E20E945A008FE19EE40197F1F700C079
S11303F0000088E20E94B2018CE00E94B20186E013
S11304000E94B2010C94C101CF93DF93EC01899156
S1130410882319F00E94A201FACFDF91CF910895A9
S11304200E945D010E9491004AE064E071E090E066
S11304300E94200387EC0E94B20184E091E00E94B4
S113044004020E947B010E9491004AE064E071E092
S113045090E00E94200386EC0E94B20184E091E0C7
S11304600E94040285EC0E94B20180E091E00E94A7
S113047004020E9462010E9491004AE064E071E07B
S113048090E00E94200384EC0E94B20184E091E099
S11304900E9404020E9482010E9491004AE064E0EA
S11304A071E090E00E94200383EC0E94B20184E09A
S11304B091E00E94040282EC0E94B20180E091E08B
S11304C00E9404020E9467010E9491004AE064E0D5
S11304D071E090E00E94200381EC0E94B20184E06C
S11304E091E00E9404020E9488010E9491004AE067
S11304F064E071E090E00E94200380EC0E94B2016D
S113050084E091E00E9404020E946C010E94910028
S11305104AE064E071E090E00E94200381E80E94D8
S1130520B20184E091E00E9404020E948F010E94C3
S113053091004AE064E071E090E00E94200380E8CA
S11305400E94B20184E091E00E94040282E80E94C9
S1130550B20182E091E00E9404020E9471010E94B3
S113056091004AE064E071E090E00E94200384E896
S11305700E94B20184E091E00E9404020E9496016C
S11305800E9491004AE064E071E090E00E94200340
S113059083E80E94B20184E091E00E94040285E8AD
S11305A00E94B20182E091E00E9404020E9476015E
S11305B00E9491004AE064E071E090E00E94200310
S11305C087E80E94B20184E091E00E9404020E9444
S11305D09C010E9491004AE064E071E090E00E9476
S11305E0200386E80E94B20184E091E00C940402A6
S11305F00E94CB010E94640085EEC82ED12C9CE0A1
S1130600E92E0FE127E042E36BE387E10E94A300B8
S11306100E9410022FEF89E698E12150804090401B
S1130620E1F700C00000F4CF991B79E004C0991FE2
S1130630961708F0961B881F7A95C9F78095089538
S1130640BB274A3031F4992322F4BDE29095819579
S11306509F4F0C942C03BB27FB015527AA27880F17
S1130660991FAA1FA41710F0A41B83955051B9F722
S1130670A05DAA3308F0A95DA193009779F7B111A1
S1130680B1931192CB010C944503DC01FC01672F5B
S113069071917723E1F7329704C07C916D93708355
S11106A06291AE17BF07C8F30895F894FFCF18
S10706AE3A002E00DC
S9030000FC
